{
    "_format": "hh-sol-artifact-1",
    "contractName": "BananaAccount",
    "sourceName": "contracts/BananaAccount.sol",
    "abi": [
        {
            "inputs": [],
            "name": "OwnerCanNotBeSelf",
            "type": "error"
        },
        {
            "inputs": [],
            "name": "OwnerCannotBeZero",
            "type": "error"
        },
        {
            "inputs": [],
            "name": "OwnerProvidedIsSame",
            "type": "error"
        },
        {
            "inputs": [
                {
                    "internalType": "address",
                    "name": "token",
                    "type": "address"
                },
                {
                    "internalType": "address",
                    "name": "dest",
                    "type": "address"
                },
                {
                    "internalType": "uint256",
                    "name": "amount",
                    "type": "uint256"
                }
            ],
            "name": "TokenTransferFailed",
            "type": "error"
        },
        {
            "inputs": [],
            "name": "TransferToZeroAddressAttempt",
            "type": "error"
        },
        {
            "anonymous": false,
            "inputs": [
                {
                    "indexed": false,
                    "internalType": "address",
                    "name": "owner",
                    "type": "address"
                }
            ],
            "name": "AddedOwner",
            "type": "event"
        },
        {
            "anonymous": false,
            "inputs": [
                {
                    "indexed": true,
                    "internalType": "bytes32",
                    "name": "approvedHash",
                    "type": "bytes32"
                },
                {
                    "indexed": true,
                    "internalType": "address",
                    "name": "owner",
                    "type": "address"
                }
            ],
            "name": "ApproveHash",
            "type": "event"
        },
        {
            "anonymous": false,
            "inputs": [
                {
                    "indexed": false,
                    "internalType": "address",
                    "name": "handler",
                    "type": "address"
                }
            ],
            "name": "ChangedFallbackHandler",
            "type": "event"
        },
        {
            "anonymous": false,
            "inputs": [
                {
                    "indexed": false,
                    "internalType": "address",
                    "name": "guard",
                    "type": "address"
                }
            ],
            "name": "ChangedGuard",
            "type": "event"
        },
        {
            "anonymous": false,
            "inputs": [
                {
                    "indexed": false,
                    "internalType": "uint256",
                    "name": "threshold",
                    "type": "uint256"
                }
            ],
            "name": "ChangedThreshold",
            "type": "event"
        },
        {
            "anonymous": false,
            "inputs": [
                {
                    "indexed": false,
                    "internalType": "address",
                    "name": "module",
                    "type": "address"
                }
            ],
            "name": "DisabledModule",
            "type": "event"
        },
        {
            "anonymous": false,
            "inputs": [
                {
                    "indexed": false,
                    "internalType": "address",
                    "name": "module",
                    "type": "address"
                }
            ],
            "name": "EnabledModule",
            "type": "event"
        },
        {
            "anonymous": false,
            "inputs": [
                {
                    "indexed": false,
                    "internalType": "bytes32",
                    "name": "txHash",
                    "type": "bytes32"
                },
                {
                    "indexed": false,
                    "internalType": "uint256",
                    "name": "payment",
                    "type": "uint256"
                }
            ],
            "name": "ExecutionFailure",
            "type": "event"
        },
        {
            "anonymous": false,
            "inputs": [
                {
                    "indexed": true,
                    "internalType": "address",
                    "name": "module",
                    "type": "address"
                }
            ],
            "name": "ExecutionFromModuleFailure",
            "type": "event"
        },
        {
            "anonymous": false,
            "inputs": [
                {
                    "indexed": true,
                    "internalType": "address",
                    "name": "module",
                    "type": "address"
                }
            ],
            "name": "ExecutionFromModuleSuccess",
            "type": "event"
        },
        {
            "anonymous": false,
            "inputs": [
                {
                    "indexed": false,
                    "internalType": "bytes32",
                    "name": "txHash",
                    "type": "bytes32"
                },
                {
                    "indexed": false,
                    "internalType": "uint256",
                    "name": "payment",
                    "type": "uint256"
                }
            ],
            "name": "ExecutionSuccess",
            "type": "event"
        },
        {
            "anonymous": false,
            "inputs": [
                {
                    "indexed": true,
                    "internalType": "address",
                    "name": "_scw",
                    "type": "address"
                },
                {
                    "indexed": true,
                    "internalType": "address",
                    "name": "_oldOwner",
                    "type": "address"
                },
                {
                    "indexed": true,
                    "internalType": "address",
                    "name": "_newOwner",
                    "type": "address"
                }
            ],
            "name": "OwnerUpdated",
            "type": "event"
        },
        {
            "anonymous": false,
            "inputs": [
                {
                    "indexed": false,
                    "internalType": "address",
                    "name": "owner",
                    "type": "address"
                }
            ],
            "name": "RemovedOwner",
            "type": "event"
        },
        {
            "anonymous": false,
            "inputs": [
                {
                    "indexed": true,
                    "internalType": "address",
                    "name": "sender",
                    "type": "address"
                },
                {
                    "indexed": false,
                    "internalType": "uint256",
                    "name": "value",
                    "type": "uint256"
                }
            ],
            "name": "SafeReceived",
            "type": "event"
        },
        {
            "anonymous": false,
            "inputs": [
                {
                    "indexed": true,
                    "internalType": "address",
                    "name": "initiator",
                    "type": "address"
                },
                {
                    "indexed": false,
                    "internalType": "address[]",
                    "name": "owners",
                    "type": "address[]"
                },
                {
                    "indexed": false,
                    "internalType": "uint256",
                    "name": "threshold",
                    "type": "uint256"
                },
                {
                    "indexed": false,
                    "internalType": "address",
                    "name": "initializer",
                    "type": "address"
                },
                {
                    "indexed": false,
                    "internalType": "address",
                    "name": "fallbackHandler",
                    "type": "address"
                }
            ],
            "name": "SafeSetup",
            "type": "event"
        },
        {
            "anonymous": false,
            "inputs": [
                {
                    "indexed": true,
                    "internalType": "bytes32",
                    "name": "msgHash",
                    "type": "bytes32"
                }
            ],
            "name": "SignMsg",
            "type": "event"
        },
        {
            "stateMutability": "nonpayable",
            "type": "fallback"
        },
        {
            "inputs": [],
            "name": "VERSION",
            "outputs": [
                {
                    "internalType": "string",
                    "name": "",
                    "type": "string"
                }
            ],
            "stateMutability": "view",
            "type": "function"
        },
        {
            "inputs": [
                {
                    "internalType": "address",
                    "name": "owner",
                    "type": "address"
                },
                {
                    "internalType": "uint256",
                    "name": "_threshold",
                    "type": "uint256"
                }
            ],
            "name": "addOwnerWithThreshold",
            "outputs": [],
            "stateMutability": "nonpayable",
            "type": "function"
        },
        {
            "inputs": [
                {
                    "internalType": "bytes32",
                    "name": "hashToApprove",
                    "type": "bytes32"
                }
            ],
            "name": "approveHash",
            "outputs": [],
            "stateMutability": "nonpayable",
            "type": "function"
        },
        {
            "inputs": [
                {
                    "internalType": "address",
                    "name": "",
                    "type": "address"
                },
                {
                    "internalType": "bytes32",
                    "name": "",
                    "type": "bytes32"
                }
            ],
            "name": "approvedHashes",
            "outputs": [
                {
                    "internalType": "uint256",
                    "name": "",
                    "type": "uint256"
                }
            ],
            "stateMutability": "view",
            "type": "function"
        },
        {
            "inputs": [
                {
                    "internalType": "uint256",
                    "name": "_threshold",
                    "type": "uint256"
                }
            ],
            "name": "changeThreshold",
            "outputs": [],
            "stateMutability": "nonpayable",
            "type": "function"
        },
        {
            "inputs": [
                {
                    "internalType": "bytes32",
                    "name": "dataHash",
                    "type": "bytes32"
                },
                {
                    "internalType": "bytes",
                    "name": "data",
                    "type": "bytes"
                },
                {
                    "internalType": "bytes",
                    "name": "signatures",
                    "type": "bytes"
                },
                {
                    "internalType": "uint256",
                    "name": "requiredSignatures",
                    "type": "uint256"
                }
            ],
            "name": "checkNSignatures",
            "outputs": [],
            "stateMutability": "view",
            "type": "function"
        },
        {
            "inputs": [
                {
                    "internalType": "bytes32",
                    "name": "dataHash",
                    "type": "bytes32"
                },
                {
                    "internalType": "bytes",
                    "name": "data",
                    "type": "bytes"
                },
                {
                    "internalType": "bytes",
                    "name": "signatures",
                    "type": "bytes"
                }
            ],
            "name": "checkSignatures",
            "outputs": [],
            "stateMutability": "view",
            "type": "function"
        },
        {
            "inputs": [
                {
                    "internalType": "address",
                    "name": "prevModule",
                    "type": "address"
                },
                {
                    "internalType": "address",
                    "name": "module",
                    "type": "address"
                }
            ],
            "name": "disableModule",
            "outputs": [],
            "stateMutability": "nonpayable",
            "type": "function"
        },
        {
            "inputs": [],
            "name": "domainSeparator",
            "outputs": [
                {
                    "internalType": "bytes32",
                    "name": "",
                    "type": "bytes32"
                }
            ],
            "stateMutability": "view",
            "type": "function"
        },
        {
            "inputs": [
                {
                    "internalType": "address",
                    "name": "module",
                    "type": "address"
                }
            ],
            "name": "enableModule",
            "outputs": [],
            "stateMutability": "nonpayable",
            "type": "function"
        },
        {
            "inputs": [
                {
                    "internalType": "address",
                    "name": "to",
                    "type": "address"
                },
                {
                    "internalType": "uint256",
                    "name": "value",
                    "type": "uint256"
                },
                {
                    "internalType": "bytes",
                    "name": "data",
                    "type": "bytes"
                },
                {
                    "internalType": "enum Enum.Operation",
                    "name": "operation",
                    "type": "uint8"
                },
                {
                    "internalType": "uint256",
                    "name": "safeTxGas",
                    "type": "uint256"
                },
                {
                    "internalType": "uint256",
                    "name": "baseGas",
                    "type": "uint256"
                },
                {
                    "internalType": "uint256",
                    "name": "gasPrice",
                    "type": "uint256"
                },
                {
                    "internalType": "address",
                    "name": "gasToken",
                    "type": "address"
                },
                {
                    "internalType": "address",
                    "name": "refundReceiver",
                    "type": "address"
                },
                {
                    "internalType": "uint256",
                    "name": "_nonce",
                    "type": "uint256"
                }
            ],
            "name": "encodeTransactionData",
            "outputs": [
                {
                    "internalType": "bytes",
                    "name": "",
                    "type": "bytes"
                }
            ],
            "stateMutability": "view",
            "type": "function"
        },
        {
            "inputs": [],
            "name": "entryPoint",
            "outputs": [
                {
                    "internalType": "address",
                    "name": "",
                    "type": "address"
                }
            ],
            "stateMutability": "view",
            "type": "function"
        },
        {
            "inputs": [
                {
                    "internalType": "address[]",
                    "name": "to",
                    "type": "address[]"
                },
                {
                    "internalType": "uint256[]",
                    "name": "value",
                    "type": "uint256[]"
                },
                {
                    "internalType": "bytes[]",
                    "name": "data",
                    "type": "bytes[]"
                },
                {
                    "internalType": "enum Enum.Operation",
                    "name": "operation",
                    "type": "uint8"
                }
            ],
            "name": "execBatchTransactionFromEntrypoint",
            "outputs": [],
            "stateMutability": "nonpayable",
            "type": "function"
        },
        {
            "inputs": [
                {
                    "internalType": "address",
                    "name": "to",
                    "type": "address"
                },
                {
                    "internalType": "uint256",
                    "name": "value",
                    "type": "uint256"
                },
                {
                    "internalType": "bytes",
                    "name": "data",
                    "type": "bytes"
                },
                {
                    "internalType": "enum Enum.Operation",
                    "name": "operation",
                    "type": "uint8"
                },
                {
                    "internalType": "uint256",
                    "name": "safeTxGas",
                    "type": "uint256"
                },
                {
                    "internalType": "uint256",
                    "name": "baseGas",
                    "type": "uint256"
                },
                {
                    "internalType": "uint256",
                    "name": "gasPrice",
                    "type": "uint256"
                },
                {
                    "internalType": "address",
                    "name": "gasToken",
                    "type": "address"
                },
                {
                    "internalType": "address payable",
                    "name": "refundReceiver",
                    "type": "address"
                },
                {
                    "internalType": "bytes",
                    "name": "signatures",
                    "type": "bytes"
                }
            ],
            "name": "execTransaction",
            "outputs": [
                {
                    "internalType": "bool",
                    "name": "success",
                    "type": "bool"
                }
            ],
            "stateMutability": "payable",
            "type": "function"
        },
        {
            "inputs": [
                {
                    "internalType": "address",
                    "name": "to",
                    "type": "address"
                },
                {
                    "internalType": "uint256",
                    "name": "value",
                    "type": "uint256"
                },
                {
                    "internalType": "bytes",
                    "name": "data",
                    "type": "bytes"
                },
                {
                    "internalType": "enum Enum.Operation",
                    "name": "operation",
                    "type": "uint8"
                }
            ],
            "name": "execTransactionFromEntrypoint",
            "outputs": [],
            "stateMutability": "nonpayable",
            "type": "function"
        },
        {
            "inputs": [
                {
                    "internalType": "address",
                    "name": "to",
                    "type": "address"
                },
                {
                    "internalType": "uint256",
                    "name": "value",
                    "type": "uint256"
                },
                {
                    "internalType": "bytes",
                    "name": "data",
                    "type": "bytes"
                },
                {
                    "internalType": "enum Enum.Operation",
                    "name": "operation",
                    "type": "uint8"
                }
            ],
            "name": "execTransactionFromModule",
            "outputs": [
                {
                    "internalType": "bool",
                    "name": "success",
                    "type": "bool"
                }
            ],
            "stateMutability": "nonpayable",
            "type": "function"
        },
        {
            "inputs": [
                {
                    "internalType": "address",
                    "name": "to",
                    "type": "address"
                },
                {
                    "internalType": "uint256",
                    "name": "value",
                    "type": "uint256"
                },
                {
                    "internalType": "bytes",
                    "name": "data",
                    "type": "bytes"
                },
                {
                    "internalType": "enum Enum.Operation",
                    "name": "operation",
                    "type": "uint8"
                }
            ],
            "name": "execTransactionFromModuleReturnData",
            "outputs": [
                {
                    "internalType": "bool",
                    "name": "success",
                    "type": "bool"
                },
                {
                    "internalType": "bytes",
                    "name": "returnData",
                    "type": "bytes"
                }
            ],
            "stateMutability": "nonpayable",
            "type": "function"
        },
        {
            "inputs": [],
            "name": "getChainId",
            "outputs": [
                {
                    "internalType": "uint256",
                    "name": "",
                    "type": "uint256"
                }
            ],
            "stateMutability": "view",
            "type": "function"
        },
        {
            "inputs": [
                {
                    "internalType": "address",
                    "name": "start",
                    "type": "address"
                },
                {
                    "internalType": "uint256",
                    "name": "pageSize",
                    "type": "uint256"
                }
            ],
            "name": "getModulesPaginated",
            "outputs": [
                {
                    "internalType": "address[]",
                    "name": "array",
                    "type": "address[]"
                },
                {
                    "internalType": "address",
                    "name": "next",
                    "type": "address"
                }
            ],
            "stateMutability": "view",
            "type": "function"
        },
        {
            "inputs": [],
            "name": "getOwners",
            "outputs": [
                {
                    "internalType": "address[]",
                    "name": "",
                    "type": "address[]"
                }
            ],
            "stateMutability": "view",
            "type": "function"
        },
        {
            "inputs": [
                {
                    "internalType": "uint256",
                    "name": "offset",
                    "type": "uint256"
                },
                {
                    "internalType": "uint256",
                    "name": "length",
                    "type": "uint256"
                }
            ],
            "name": "getStorageAt",
            "outputs": [
                {
                    "internalType": "bytes",
                    "name": "",
                    "type": "bytes"
                }
            ],
            "stateMutability": "view",
            "type": "function"
        },
        {
            "inputs": [],
            "name": "getThreshold",
            "outputs": [
                {
                    "internalType": "uint256",
                    "name": "",
                    "type": "uint256"
                }
            ],
            "stateMutability": "view",
            "type": "function"
        },
        {
            "inputs": [
                {
                    "internalType": "address",
                    "name": "to",
                    "type": "address"
                },
                {
                    "internalType": "uint256",
                    "name": "value",
                    "type": "uint256"
                },
                {
                    "internalType": "bytes",
                    "name": "data",
                    "type": "bytes"
                },
                {
                    "internalType": "enum Enum.Operation",
                    "name": "operation",
                    "type": "uint8"
                },
                {
                    "internalType": "uint256",
                    "name": "safeTxGas",
                    "type": "uint256"
                },
                {
                    "internalType": "uint256",
                    "name": "baseGas",
                    "type": "uint256"
                },
                {
                    "internalType": "uint256",
                    "name": "gasPrice",
                    "type": "uint256"
                },
                {
                    "internalType": "address",
                    "name": "gasToken",
                    "type": "address"
                },
                {
                    "internalType": "address",
                    "name": "refundReceiver",
                    "type": "address"
                },
                {
                    "internalType": "uint256",
                    "name": "_nonce",
                    "type": "uint256"
                }
            ],
            "name": "getTransactionHash",
            "outputs": [
                {
                    "internalType": "bytes32",
                    "name": "",
                    "type": "bytes32"
                }
            ],
            "stateMutability": "view",
            "type": "function"
        },
        {
            "inputs": [
                {
                    "internalType": "address",
                    "name": "module",
                    "type": "address"
                }
            ],
            "name": "isModuleEnabled",
            "outputs": [
                {
                    "internalType": "bool",
                    "name": "",
                    "type": "bool"
                }
            ],
            "stateMutability": "view",
            "type": "function"
        },
        {
            "inputs": [
                {
                    "internalType": "address",
                    "name": "owner",
                    "type": "address"
                }
            ],
            "name": "isOwner",
            "outputs": [
                {
                    "internalType": "bool",
                    "name": "",
                    "type": "bool"
                }
            ],
            "stateMutability": "view",
            "type": "function"
        },
        {
            "inputs": [],
            "name": "nonce",
            "outputs": [
                {
                    "internalType": "uint256",
                    "name": "",
                    "type": "uint256"
                }
            ],
            "stateMutability": "view",
            "type": "function"
        },
        {
            "inputs": [],
            "name": "owner",
            "outputs": [
                {
                    "internalType": "address",
                    "name": "",
                    "type": "address"
                }
            ],
            "stateMutability": "view",
            "type": "function"
        },
        {
            "inputs": [
                {
                    "internalType": "address",
                    "name": "token",
                    "type": "address"
                },
                {
                    "internalType": "address",
                    "name": "dest",
                    "type": "address"
                },
                {
                    "internalType": "uint256",
                    "name": "amount",
                    "type": "uint256"
                }
            ],
            "name": "pullTokens",
            "outputs": [],
            "stateMutability": "nonpayable",
            "type": "function"
        },
        {
            "inputs": [
                {
                    "internalType": "address",
                    "name": "prevOwner",
                    "type": "address"
                },
                {
                    "internalType": "address",
                    "name": "owner",
                    "type": "address"
                },
                {
                    "internalType": "uint256",
                    "name": "_threshold",
                    "type": "uint256"
                }
            ],
            "name": "removeOwner",
            "outputs": [],
            "stateMutability": "nonpayable",
            "type": "function"
        },
        {
            "inputs": [
                {
                    "internalType": "address",
                    "name": "newEntrypoint",
                    "type": "address"
                }
            ],
            "name": "replaceEntrypoint",
            "outputs": [],
            "stateMutability": "nonpayable",
            "type": "function"
        },
        {
            "inputs": [
                {
                    "internalType": "address",
                    "name": "handler",
                    "type": "address"
                }
            ],
            "name": "setFallbackHandler",
            "outputs": [],
            "stateMutability": "nonpayable",
            "type": "function"
        },
        {
            "inputs": [
                {
                    "internalType": "address",
                    "name": "guard",
                    "type": "address"
                }
            ],
            "name": "setGuard",
            "outputs": [],
            "stateMutability": "nonpayable",
            "type": "function"
        },
        {
            "inputs": [
                {
                    "internalType": "address[]",
                    "name": "_owners",
                    "type": "address[]"
                },
                {
                    "internalType": "uint256",
                    "name": "_threshold",
                    "type": "uint256"
                },
                {
                    "internalType": "address",
                    "name": "to",
                    "type": "address"
                },
                {
                    "internalType": "bytes",
                    "name": "data",
                    "type": "bytes"
                },
                {
                    "internalType": "address",
                    "name": "fallbackHandler",
                    "type": "address"
                },
                {
                    "internalType": "address",
                    "name": "paymentToken",
                    "type": "address"
                },
                {
                    "internalType": "uint256",
                    "name": "payment",
                    "type": "uint256"
                },
                {
                    "internalType": "address payable",
                    "name": "paymentReceiver",
                    "type": "address"
                }
            ],
            "name": "setup",
            "outputs": [],
            "stateMutability": "nonpayable",
            "type": "function"
        },
        {
            "inputs": [
                {
                    "internalType": "address",
                    "name": "_owner",
                    "type": "address"
                },
                {
                    "internalType": "uint256",
                    "name": "_threshold",
                    "type": "uint256"
                },
                {
                    "internalType": "address",
                    "name": "to",
                    "type": "address"
                },
                {
                    "internalType": "bytes",
                    "name": "data",
                    "type": "bytes"
                },
                {
                    "internalType": "address",
                    "name": "fallbackHandler",
                    "type": "address"
                },
                {
                    "internalType": "address",
                    "name": "paymentToken",
                    "type": "address"
                },
                {
                    "internalType": "uint256",
                    "name": "payment",
                    "type": "uint256"
                },
                {
                    "internalType": "address payable",
                    "name": "paymentReceiver",
                    "type": "address"
                },
                {
                    "internalType": "address",
                    "name": "_entryPoint",
                    "type": "address"
                }
            ],
            "name": "setupWithEntrypoint",
            "outputs": [],
            "stateMutability": "nonpayable",
            "type": "function"
        },
        {
            "inputs": [
                {
                    "internalType": "bytes32",
                    "name": "",
                    "type": "bytes32"
                }
            ],
            "name": "signedMessages",
            "outputs": [
                {
                    "internalType": "uint256",
                    "name": "",
                    "type": "uint256"
                }
            ],
            "stateMutability": "view",
            "type": "function"
        },
        {
            "inputs": [
                {
                    "internalType": "address",
                    "name": "targetContract",
                    "type": "address"
                },
                {
                    "internalType": "bytes",
                    "name": "calldataPayload",
                    "type": "bytes"
                }
            ],
            "name": "simulateAndRevert",
            "outputs": [],
            "stateMutability": "nonpayable",
            "type": "function"
        },
        {
            "inputs": [
                {
                    "internalType": "address",
                    "name": "prevOwner",
                    "type": "address"
                },
                {
                    "internalType": "address",
                    "name": "oldOwner",
                    "type": "address"
                },
                {
                    "internalType": "address",
                    "name": "newOwner",
                    "type": "address"
                }
            ],
            "name": "swapOwner",
            "outputs": [],
            "stateMutability": "nonpayable",
            "type": "function"
        },
        {
            "inputs": [
                {
                    "internalType": "address payable",
                    "name": "dest",
                    "type": "address"
                },
                {
                    "internalType": "uint256",
                    "name": "amount",
                    "type": "uint256"
                }
            ],
            "name": "transfer",
            "outputs": [],
            "stateMutability": "nonpayable",
            "type": "function"
        },
        {
            "inputs": [
                {
                    "internalType": "address",
                    "name": "_newOwner",
                    "type": "address"
                }
            ],
            "name": "updateOwner",
            "outputs": [],
            "stateMutability": "nonpayable",
            "type": "function"
        },
        {
            "inputs": [
                {
                    "components": [
                        {
                            "internalType": "address",
                            "name": "sender",
                            "type": "address"
                        },
                        {
                            "internalType": "uint256",
                            "name": "nonce",
                            "type": "uint256"
                        },
                        {
                            "internalType": "bytes",
                            "name": "initCode",
                            "type": "bytes"
                        },
                        {
                            "internalType": "bytes",
                            "name": "callData",
                            "type": "bytes"
                        },
                        {
                            "internalType": "uint256",
                            "name": "callGasLimit",
                            "type": "uint256"
                        },
                        {
                            "internalType": "uint256",
                            "name": "verificationGasLimit",
                            "type": "uint256"
                        },
                        {
                            "internalType": "uint256",
                            "name": "preVerificationGas",
                            "type": "uint256"
                        },
                        {
                            "internalType": "uint256",
                            "name": "maxFeePerGas",
                            "type": "uint256"
                        },
                        {
                            "internalType": "uint256",
                            "name": "maxPriorityFeePerGas",
                            "type": "uint256"
                        },
                        {
                            "internalType": "bytes",
                            "name": "paymasterAndData",
                            "type": "bytes"
                        },
                        {
                            "internalType": "bytes",
                            "name": "signature",
                            "type": "bytes"
                        }
                    ],
                    "internalType": "struct UserOperation",
                    "name": "userOp",
                    "type": "tuple"
                },
                {
                    "internalType": "bytes32",
                    "name": "userOpHash",
                    "type": "bytes32"
                },
                {
                    "internalType": "uint256",
                    "name": "missingAccountFunds",
                    "type": "uint256"
                }
            ],
            "name": "validateUserOp",
            "outputs": [
                {
                    "internalType": "uint256",
                    "name": "validationData",
                    "type": "uint256"
                }
            ],
            "stateMutability": "nonpayable",
            "type": "function"
        },
        {
            "stateMutability": "payable",
            "type": "receive"
        }
    ],
    "bytecode": "0x6080806040523461001b57600160045561394290816100218239f35b600080fdfe60806040526004361015610030575b3615610028573461002357610021613107565b005b600080fd5b6100216136e7565b60003560e01c80630d582f131461035057806312fb68e0146103475780632694bd1d1461033e5780632d9ad53d146103355780632f54bf6e1461032c5780633408e470146103235780633a871cdd1461031a578063468721a7146103115780635229073f146103085780635624b25b146102ff5780635ae6bd37146102f6578063610b5925146102ed578063694e80c3146102e457806369edce7d146102db5780636a761202146102d25780637d832974146102c9578063880cdc31146102c05780638ab7495b146102b75780638da5cb5b146102ae578063934f3a11146102a5578063a0e67e2b1461029c578063a9059cbb14610293578063ac85dca71461028a578063affed0e014610281578063b0d691fe14610278578063b4faba091461026f578063b63e800d14610266578063cc2f84521461025d578063d4d9bdcd14610254578063d8d11f781461024b578063e009cfde14610242578063e19a9dd914610239578063e318b52b14610230578063e75235b814610227578063e86637db1461021e578063f08a032314610215578063f30d76a31461020c578063f698da2514610203578063f8dc5dd9146101fa5763ffa1ad740361000e576101f5611b2a565b61000e565b506101f5611a86565b506101f5611a62565b506101f5611a1a565b506101f56119ac565b506101f5611983565b506101f5611964565b506101f5611823565b506101f5611709565b506101f56115d5565b506101f56115a1565b506101f5611469565b506101f5611307565b506101f5611255565b506101f56111f5565b506101f56111cb565b506101f56111ac565b506101f5611143565b506101f561108c565b506101f5610ff9565b506101f5610f66565b506101f5610f3c565b506101f5610e5c565b506101f5610d84565b506101f5610d38565b506101f5610c7c565b506101f5610bea565b506101f5610b55565b506101f5610a63565b506101f5610a36565b506101f561099a565b506101f5610941565b506101f56108ca565b506101f56107bf565b506101f56107a3565b506101f561073a565b506101f5610708565b506101f56106d8565b506101f5610625565b506101f5610387565b6001600160a01b0381160361002357565b610104359061037882610359565b565b60e4359061037882610359565b5034610023576040366003190112610023576004356103a581610359565b7f9465fa0c962cc76958e6373a993326400c1c94f8be2fe3a952adfa7f60b2ea266104ce602435926103d5613779565b6103f86001600160a01b03821680151590816104f0575b816104e5575b50613506565b61042961042361041761040a84610d1e565b546001600160a01b031690565b6001600160a01b031690565b1561353a565b6001600052600260205261046d61045f7fe90b7bceb6e7df5418fb78d8ee546e97c83a08bbccc01a0644d599ccd2a7c2e061040a565b61046883610d1e565b611b71565b600160005260026020526104a1817fe90b7bceb6e7df5418fb78d8ee546e97c83a08bbccc01a0644d599ccd2a7c2e0611b71565b6104b46104af600354612060565b600355565b6040516001600160a01b0390911681529081906020820190565b0390a180600454036104dc57005b61002190613693565b9050301415386103f2565b600181141591506103ec565b50634e487b7160e01b600052604160045260246000fd5b6001600160401b03811161052657604052565b61052e6104fc565b604052565b604081019081106001600160401b0382111761052657604052565b608081019081106001600160401b0382111761052657604052565b61018081019081106001600160401b0382111761052657604052565b90601f801991011681019081106001600160401b0382111761052657604052565b6020906001600160401b0381116105c3575b601f01601f19160190565b6105cb6104fc565b6105b8565b9291926105dc826105a6565b916105ea6040519384610585565b829481845281830111610023578281602093846000960137010152565b9080601f8301121561002357816020610622933591016105d0565b90565b5034610023576080366003190112610023576001600160401b0360243581811161002357610657903690600401610607565b60443591821161002357610672610021923690600401610607565b60643591600435612c7a565b60643590600282101561002357565b6080600319820112610023576004356106a581610359565b9160243591604435906001600160401b038211610023576106c891600401610607565b9060643560028110156100235790565b5034610023576100216106ea3661068d565b9261070360018060a09594951b03600954163314611d04565b612229565b503461002357602036600319011261002357602061073060043561072b81610359565b6133cf565b6040519015158152f35b503461002357602036600319011261002357602060043561075a81610359565b6001600160a01b03908116600181141591908261077e575b50506040519015158152f35b909150600052600282526040600020541615153880610772565b600091031261002357565b5034610023576000366003190112610023576020604051468152f35b503461002357600319606036820112610023576004356001600160401b039182821161002357610160908236030112610023576044359161080b60018060a01b03600954163314611d04565b602461081b813584600401611d50565b9201351015610885578161083f92610843575b506040519081529081906020820190565b0390f35b600080809260405190338319f1503d15610880573d610861816105a6565b9061086f6040519283610585565b8152600060203d92013e5b3861082e565b61087a565b60405162461bcd60e51b815260206004820152601c60248201527f6163636f756e743a206e6f6e73657175656e7469616c206e6f6e6365000000006044820152606490fd5b50346100235760206107306108de3661068d565b9291909161330a565b918091926000905b828210610907575011610900575050565b6000910152565b915080602091830151818601520182916108ef565b90602091610935815180928185528580860191016108e7565b601f01601f1916010190565b5034610023576109536108de3661068d565b6040519060203d8301016040523d82523d6000602084013e61083f6040519283921515835260406020840152604083019061091c565b90602061062292818152019061091c565b50346100235760403660031901126100235760043560243560208160001904811182151516610a29575b60059082821b936109d4856105a6565b946109e26040519687610585565b8086526109f1601f19916105a6565b01368387013760005b848110610a0f576040518061083f8882610989565b80610a24918301548482871b89010152612060565b6109fa565b610a31612049565b6109c4565b50346100235760203660031901126100235760043560005260076020526020604060002054604051908152f35b5034610023576020366003190112610023577fecdf3a3effea5783a3c4c2140e677577666428d44ed9d474a0b3a4c9943f8440610b45600435610aa581610359565b610aad613779565b610ae26001600160a01b0382811680151580610b4a575b610acd906132a2565b600052600160205260406000205416156132d6565b60016000819052602052610b23610b066000805160206138cd83398151915261040a565b6001600160a01b0383166000908152600160205260409020611b71565b600160008190526020526104b4816000805160206138cd833981519152611b71565b0390a1005b506001811415610ac4565b5034610023576020366003190112610023577f610f7ff2b304ae8903c3de74c60c6ab1f7d6226b3f52c5161905bb5ad4039c936020600435610b95613779565b610ba360035482111561349e565b610bb060018210156134d2565b80600455604051908152a1005b9181601f84011215610023578235916001600160401b038311610023576020838186019501011161002357565b50346100235761012036600319011261002357600435610c0981610359565b604435610c1581610359565b606435916001600160401b03831161002357610c38610021933690600401610bbd565b608492919235610c4781610359565b60a43591610c5483610359565b60e43594610c6186610359565b6101043596610c6f88610359565b60c4359560243590611c1c565b5061014036600319011261002357600435610c9681610359565b6001600160401b0360443581811161002357610cb6903690600401610bbd565b90610cbf61067e565b9160e43590610ccd82610359565b610cd561036a565b92610124359586116100235761083f96610cf6610d0c973690600401610607565b9560c4359360a435936084359360243590612636565b60405190151581529081906020820190565b6001600160a01b0316600090815260026020526040902090565b503461002357604036600319011261002357600435610d5681610359565b60018060a01b0316600052600860205260406000206024356000526020526020604060002054604051908152f35b503461002357602036600319011261002357600435610da281610359565b600a546001600160a01b031633148015610dfc575b15610dc55761002190612259565b60405162461bcd60e51b815260206004820152600f60248201526e135a5e195908105d5d1a0811985a5b608a1b6044820152606490fd5b5030331415610db7565b9181601f84011215610023578235916001600160401b038311610023576020808501948460051b01011161002357565b6020906001600160401b038111610e4f575b60051b0190565b610e576104fc565b610e48565b5034610023576080366003190112610023576001600160401b0360043581811161002357610e8e903690600401610e06565b602490813584811161002357610ea8903690600401610e06565b91604435868111610023573660238201121561002357806004013594610ecd86610e36565b95610edb6040519788610585565b808752602098828a89019260051b8501019336851161002357838101925b858410610f16576100218b8b8b8b8b610f1061067e565b9461209e565b8335838111610023578c91610f318392883691870101610607565b815201930192610ef9565b503461002357600036600319011261002357600a546040516001600160a01b039091168152602090f35b5034610023576060366003190112610023576001600160401b0360243581811161002357610f98903690600401610607565b60443591821161002357610fb3610021923690600401610607565b90600435612a34565b90815180825260208080930193019160005b828110610fdc575050505090565b83516001600160a01b031685529381019392810192600101610fce565b50346100235760008060031936011261108957611017600354611b90565b9080600191828252600260209281845260018060a01b039160409386848685205416905b611052575b85518781528061083f818a018c610fbc565b84168781146110845790818892611069838c611bd9565b52845282875261107e85878620541691612060565b9161103b565b611040565b80fd5b5034610023576040366003190112610023576004356110aa81610359565b60243560018060a01b036110c381600a541633146122e2565b821691821561110557819060008080809581945af1156110e35750604051f35b6064926040519263190eecf360e31b8452600484015260248301526044820152fd5b6040516309293b1960e41b8152600490fd5b60609060031901126100235760043561112f81610359565b9060243561113c81610359565b9060443590565b50346100235761115236611117565b600a546001600160a01b0393929061116d90851633146122e2565b83811690811561110557826111829185613715565b1561118957005b6064936040519363190eecf360e31b855216600484015260248301526044820152fd5b5034610023576000366003190112610023576020600554604051908152f35b5034610023576000366003190112610023576009546040516001600160a01b039091168152602090f35b50346100235760403660031901126100235760043561121381610359565b6024356001600160401b0381116100235760009161123683923690600401610607565b90602082519201905af46000523d6020523d600060403e60403d016000fd5b503461002357610100366003190112610023576001600160401b0360043581811161002357611288903690600401610e06565b60443561129481610359565b606435938411610023576112af610021943690600401610bbd565b608435916112bc83610359565b60a435936112c985610359565b6112d161037a565b9660c4359660243591612392565b906112f7602091949394604084526040840190610fbc565b6001600160a01b03909416910152565b50346100235760403660031901126100235760043561132581610359565b600190600090826001600160a01b0360243581841683148015611455575b61134c90613402565b611357811515613436565b61138061040a61136683611b90565b969560018060a01b03166000526001602052604060002090565b955b6113cb575b508416036113a1575b815261083f604051928392836112df565b91506113c56113b86113b2846125c6565b83611bd9565b516001600160a01b031690565b91611390565b81869594951683811515918261144a575b505080611441575b156114395761143361142d61040a88611413899a6114048a9b8a9b611bd9565b6001600160a01b039091169052565b6001600160a01b0316600090815260016020526040902090565b96612060565b93611382565b939293611387565b508085106113e4565b1415905083386113dc565b5061134c611462856133cf565b9050611343565b50346100235760203660031901126100235733600090815260026020526040902054600435906001600160a01b0316156114fb573360009081526008602052604081209091906114cf906114c99083905b90600052602052604060002090565b60019055565b6040519033907ff2a0eb156472d1440255b0d7c1e19cc07115d1051fe605b0dce69acfec884d9c8484a3f35b60405162461bcd60e51b8152602060048201526005602482015264047533033360dc1b6044820152606490fd5b6101406003198201126100235760043561154181610359565b9160243591604435906001600160401b0382116100235761156491600401610bbd565b9091606435600281101561002357906084359060a4359060c4359060e43561158b81610359565b906101043561159981610359565b906101243590565b50346100235760206115c76115b536611528565b99989098979197969296959395612f96565b818151910120604051908152f35b5034610023576040366003190112610023576004356115f381610359565b6024359061160082610359565b611608613779565b6001600160a01b0382811690811515806116fe575b611626906132a2565b808316600052600160205260406000205416036116d157816116a4610b459261046861168861040a7faab4fa2b463f581b2b32cb3b7e3b704b9ce37cc209b5fb4d77e593ace40542769760018060a01b03166000526001602052604060002090565b6001600160a01b03909216600090815260016020526040902090565b6001600160a01b03811660009081526001602052604090206104b4905b80546001600160a01b0319169055565b60405162461bcd60e51b8152602060048201526005602482015264475331303360d81b6044820152606490fd5b50600182141561161d565b5034610023576020366003190112610023577f1151116914515bc0891ff9047a6cb32cf902546f83066499bcf8ba33d2353fa2610b4560043561174b81610359565b611753613779565b6001600160a01b038116806117a2575b507f4a204f620c8c5ccdca3fd54d003badd85ba500436a431f0cbda4f558c93c34c88190556040516001600160a01b0390911681529081906020820190565b6040516301ffc9a760e01b815263736bd41d60e11b60048201526117e291602090829060249082905afa908115611816575b6000916117e8575b5061315f565b38611763565b611809915060203d811161180f575b6118018183610585565b810190613147565b386117dc565b503d6117f7565b61181e611f76565b6117d4565b5034610023576060366003190112610023577f9465fa0c962cc76958e6373a993326400c1c94f8be2fe3a952adfa7f60b2ea26610b456104687ff8d49fc529812e9a7c5c50e69c20f0dccc0db8fa95c98bc58cc9a4f1c1299eaf61193c60043561188c81610359565b6119306024359161189c83610359565b6044359586916118ab83610359565b6118b3613779565b6119136001600160a01b036118d885821680151590816104f057816104e55750613506565b6118ea61042361041761040a88610d1e565b861680151580611959575b6118fe90613506565b61190d61041761040a85610d1e565b14613652565b61192b61192261040a87610d1e565b61046885610d1e565b610d1e565b6104b46116c182610d1e565b0390a16040516001600160a01b0390911681529081906020820190565b5060018114156118f5565b5034610023576000366003190112610023576020600454604051908152f35b50346100235761083f6119986115b536611528565b60405191829160208352602083019061091c565b5034610023576020366003190112610023577f5ac6c46c93c8d0e53714ba3b53db3e7c046da994313d7ed0d192028bc7c228b060206004356119ed81610359565b6119f5613779565b6000805160206138ed8339815191528190556040516001600160a01b039091168152a1005b503461002357602036600319011261002357600435611a3881610359565b611a40613779565b600980546001600160a01b0319166001600160a01b0392909216919091179055005b5034610023576000366003190112610023576020611a7e612f4c565b604051908152f35b503461002357611b107ff8d49fc529812e9a7c5c50e69c20f0dccc0db8fa95c98bc58cc9a4f1c1299eaf6104ce611abc36611117565b949091611ac7613779565b611add86611ad66003546125c6565b101561349e565b611afb6001600160a01b03841680151580611959576118fe90613506565b610468611b0a61040a85610d1e565b91610d1e565b611b1c6116c182610d1e565b6104b46104af600354613686565b50346100235760003660031901126100235761083f604051611b4b81610533565b60058152640312e342e360dc1b602082015260405191829160208352602083019061091c565b80546001600160a01b0319166001600160a01b03909216919091179055565b90611b9a82610e36565b611ba76040519182610585565b8281528092611bb8601f1991610e36565b0190602036910137565b50634e487b7160e01b600052603260045260246000fd5b6020918151811015611bee575b60051b010190565b611bf6611bc2565b611be6565b908060209392818452848401376000828201840152601f01601f1916010190565b9097949693929895919860018060a01b039687948580948160018060a01b03199416846009541617600955168092600a541617600a5560405191611c5f83610533565b60018352602083016020368237835115611cf7575b52836040519c8d9c8d9463b63e800d60e01b60208701526024860161010090526101248601611ca291610fbc565b94604401521660648c01526023198b83030160848c0152611cc292611bfb565b961660a48801521660c486015260e48501521661010483015203601f1981018252611ced9082610585565b6103789030612152565b611cff611bc2565b611c74565b15611d0b57565b60405162461bcd60e51b815260206004820152601c60248201527f6163636f756e743a206e6f742066726f6d20456e747279506f696e74000000006044820152606490fd5b90604051611d7481611d6660208201948561201a565b03601f198101835282610585565b519020600a546001600160a01b0316916101408101359036819003601e19018212156100235701908135916001600160401b0383116100235760200190823603821361002357611dcc61041792611dd29436916105d0565b90611de1565b03611ddc57600090565b600190565b61062291611dee91611f3e565b919091611e1f565b50634e487b7160e01b600052602160045260246000fd5b60051115611e1757565b610378611df6565b611e2881611e0d565b80611e305750565b611e3981611e0d565b60018103611e855760405162461bcd60e51b815260206004820152601860248201527745434453413a20696e76616c6964207369676e617475726560401b6044820152606490fd5b0390fd5b611e8e81611e0d565b60028103611edb5760405162461bcd60e51b815260206004820152601f60248201527f45434453413a20696e76616c6964207369676e6174757265206c656e677468006044820152606490fd5b80611ee7600392611e0d565b14611eee57565b60405162461bcd60e51b815260206004820152602260248201527f45434453413a20696e76616c6964207369676e6174757265202773272076616c604482015261756560f01b6064820152608490fd5b906041815114600014611f6c57611f68916020820151906060604084015193015160001a90611f83565b9091565b5050600090600290565b506040513d6000823e3d90fd5b939291906fa2a8918ca85bafe22016d0b997e4df60600160ff1b03831161200d5791611fd09160209360405196879094939260ff6060936080840197845216602083015260408201520152565b836000948592838052039060015afa15612000575b81516001600160a01b03811615611ffa579190565b50600190565b612008611f76565b611fe5565b5050509050600090600390565b603c917f19457468657265756d205369676e6564204d6573736167653a0a3332000000008252601c8201520190565b50634e487b7160e01b600052601160045260246000fd5b6001906000198114612070570190565b612078612049565b0190565b919081101561208c5760051b0190565b610e57611bc2565b3561062281610359565b9390959492956120b960018060a01b03600954163314611d04565b815181036121175760005b8181106120d5575050505050509050565b8061210d866120f06120eb61211295878c61207c565b612094565b6120fb848d8a61207c565b356121068589611bd9565b5191612229565b612060565b6120c4565b60405162461bcd60e51b815260206004820152601360248201527277726f6e67206172726179206c656e6774687360681b6044820152606490fd5b8151600092839283929160200190600019f43d906040519160208184010160405280835283602084013e15612185575050565b60448151106122255760048101518101906020816024840193031261221d576024810151906001600160401b03821161222157018160438201121561221d576024810151926121d3846105a6565b926121e16040519485610585565b848452604485840101116110895750611e81926122059160446020850191016108e7565b60405162461bcd60e51b815291829160048301610989565b8280fd5b8380fd5b5080fd5b90612235939291613076565b3d906040519060208383010160405282825260009283602084013e15612185575050565b6001600160a01b03818116919082156122d0573083146122be57600a5416908183146122ac57600a55307fb9312e2100469bd44e3f762c248f4dcc8d7788906fabf34f79db45920c37e2696000604051a4565b604051638a95d3fb60e01b8152600490fd5b6040516375b4d24760e01b8152600490fd5b604051639b15e16f60e01b8152600490fd5b156122e957565b60405162461bcd60e51b815260206004820152601360248201527221b0b63632b91024b9902737ba1027bbb732b960691b6044820152606490fd5b93929594918060808601608087525260a08501919060005b8181106123675750505060208401959095526001600160a01b03918216604084015216606090910152565b909192600190843561237881610359565b828060a01b0316815260208091019401910191909161233c565b9892949793909691976123a488610e36565b6123b16040519182610585565b88815260208082018a60051b8d0190368211610023578d905b82821061247757505050506124286124459795938b9a999795936124127f141df868a6331af528e38c83b7aa03edc19be66e37ae67f9285bf4f8e3c6a1a89d61242e9561356e565b6001600160a01b03891661245c575b36916105d0565b856131c7565b8261244a575b505050604051948594339886612324565b0390a2565b61245392612910565b50388080612434565b612472896000805160206138ed83398151915255565b612421565b838091833561248581610359565b8152019101906123ca565b90600282101561249d5752565b6124a5611df6565b52565b9a9893928b97929a96919598939d9c9d600160a01b600190039b8c998a8099168152602001528c6101606040819201528d01906124e492611bfb565b9760608c016124f291612490565b60808b015260a08a015260c08901521660e0870152166101008501528381036101208501526125209161091c565b9316906101400152565b806000190460401181151516612541575b60061b90565b612549612049565b61253b565b8115612558570490565b634e487b7160e01b600052601260045260246000fd5b6109c4906109c4198111612070570190565b6101f4906101f4198111612070570190565b1561259957565b60405162461bcd60e51b8152602060048201526005602482015264047533031360dc1b6044820152606490fd5b600181106125d6575b6000190190565b6125de612049565b6125cf565b6109c481106125f5575b6109c3190190565b6125fd612049565b6125ed565b1561260957565b60405162461bcd60e51b8152602060048201526005602482015264475330313360d81b6044820152606490fd5b838a899583859f9e9d9995968b978f9d9e8b9f839e8a839e600554988997600160a01b60019003809c169761266a9a612f96565b9061267490612060565b600555805160208201209c612689918e612a34565b7f4a204f620c8c5ccdca3fd54d003badd85ba500436a431f0cbda4f558c93c34c85416998a1515998a612858575b509061272091612728936126f95a6126f26126ed6126de6126d78b61252a565b603f900490565b6126e78b61256e565b906138bb565b612580565b1115612592565b5a9f61271a89159c8d600014612851576127125a6125e3565b9536916105d0565b916130c9565b9b5a90613855565b908b908c15612847575b50801561283f575b61274390612602565b6000951561282b575b5050505050856000146127f4576040805185815260208101929092527f442e715f626346e8c54381002da614f62bee8d27386535b2521ec8540898556e91a15b612794575050565b803b1561002357604051631264e26d60e31b8152600481019290925283151560248301526000908290604490829084905af180156127e7575b6127d45750565b806127e161037892610513565b80610798565b6127ef611f76565b6127cd565b6040805185815260208101929092527f23428b18acfb3ea64b08dc0c1d296ea9c09702c09083ca5272e64d115b687d2391a161278c565b61283595506129c6565b388080808061274c565b50851561273a565b9050151538612732565b8895612421565b91908b3b1561002357838f6000848f8e838f958f8f9c8f9c8f996127289f936127209f946128a2958f9d6040519e8f9d8e9c8d9b8c9a633af85da960e11b8c526004339c016124a8565b03925af180156128cf575b6128bc575b50935090916126b7565b806127e16128c992610513565b386128b2565b6128d7611f76565b6128ad565b156128e357565b60405162461bcd60e51b8152602060048201526005602482015264475330313160d81b6044820152606490fd5b9092916001600160a01b0391908281166129c0575032935b8083166129745750600080806103789461294f82953a600110841461296d5760019061381e565b97889183918315612963575b1690f16128dc565b6108fc925061295b565b3a9061381e565b61298261298c9395926137ef565b9485921690613715565b1561299357565b60405162461bcd60e51b815260206004820152600560248201526423a998189960d91b6044820152606490fd5b93612928565b9294936001600160a01b039390848116612a2e575032955b808516612a15575060006103789461294f82956129fd84968596613898565b903a81108514612a0d579061381e565b503a9061381e565b9192612a2961298c95979461298293613898565b61381e565b956129de565b91600454918215612a485761037893612c7a565b60405162461bcd60e51b8152602060048201526005602482015264475330303160d81b6044820152606490fd5b15612a7c57565b60405162461bcd60e51b8152602060048201526005602482015264047533032360dc1b6044820152606490fd5b60ff1660048110612abc575b6003190190565b612ac4612049565b612ab5565b15612ad057565b60405162461bcd60e51b8152602060048201526005602482015264475330323560d81b6044820152606490fd5b15612b0457565b60405162461bcd60e51b8152602060048201526005602482015264475330323760d81b6044820152606490fd5b15612b3857565b60405162461bcd60e51b8152602060048201526005602482015264475330323160d81b6044820152606490fd5b15612b6c57565b60405162461bcd60e51b815260206004820152600560248201526423a998191960d91b6044820152606490fd5b15612ba057565b60405162461bcd60e51b8152602060048201526005602482015264475330323360d81b6044820152606490fd5b9081602091031261002357516001600160e01b0319811681036100235790565b9091612c046106229360408452604084019061091c565b91602081840391015261091c565b15612c1957565b60405162461bcd60e51b815260206004820152600560248201526411d4cc0c8d60da1b6044820152606490fd5b15612c4d57565b60405162461bcd60e51b815260206004820152600560248201526423a998191b60d91b6044820152606490fd5b90929192612c938451612c8c856137af565b1115612a75565b600091825b848410612ca757505050505050565b84612dc791848489612ccf8982906041020160208101519060ff604160408301519201511692565b9092909160ff811680612e2c5750508492612d9c9492612d59612d7593612d22612d1a612dc19b9a5195612d0b6020998a98898d012014612afd565b6001600160a01b03169c6137af565b841015612b31565b612d37612d2e84613873565b82511015612b65565b612d50848483010193612d4b855191613873565b613898565b90511015612b99565b604051809381926320c13b0b60e01b9788845260048401612bed565b03818a5afa918215612e1f575b600092612df2575b50506001600160e01b03191614612c12565b6001600160a01b039081168382169081119182612dd9575b5081612dcd575b50612c46565b93612060565b92612c98565b60019150141538612dbb565b909150612de861040a85610d1e565b1615159038612db4565b612e119250803d10612e18575b612e098183610585565b810190612bcd565b3880612d8a565b503d612dff565b612e27611f76565b612d82565b945095965050909250600191828114600014612e9a575050506001600160a01b031691612dc191503383148015612e6c575b612e6790612ac9565b612d9c565b50612e67612e90866114ba8660018060a01b03166000526008602052604060002090565b5415159050612e5e565b601e1015612f1b5760009293612ef5604092835196612ed08b602099612ec781611d668d8201948561201a565b51902094612aa9565b9451948594859094939260ff6060936080840197845216602083015260408201520152565b84805203915afa15612f0e575b612dc160005191612d9c565b612f16611f76565b612f02565b91602093612ef56000946040519384938b859094939260ff6060936080840197845216602083015260408201520152565b60405160208101907f47e79534a245952e8b16893a336b85a3d9ea9fa8c573f3d803afb92a79469218825246604082015230606082015260608152612f908161054e565b51902090565b94909895917fbb8310d486368db6bd6f849402fdd73ad53d316b5a4b2644ad6efe0f941286d89a9894612fd16130069260409a9636916105d0565b6020815191012089519b60208d019d8e528c60018060a01b039b8c809b1691015260608d015260808c015260a08b0190612490565b60c089015260e088015261010087015216610120850152166101408301526101609081830152815261303781610569565b519020610622613045612f4c565b604051601960f81b6020820152600160f81b6021820152602281019190915260428101929092528160628101611d66565b60009391600185949360028110156130ab575b14841461309e5750602082519201908319f490565b602083519301918419f190565b6130b3611df6565b613089565b90600092839260208351930191f490565b600094916001869560028110156130fa575b1485146130ee575060208351930191f490565b9060208451940192f190565b613102611df6565b6130db565b506000805160206138ed833981519152548015610021576000808092368280373360601b3652818060143601925af13d82803e15613143573d90f35b3d90fd5b90816020910312610023575180151581036100235790565b1561316657565b60405162461bcd60e51b8152602060048201526005602482015264047533330360dc1b6044820152606490fd5b1561319a57565b60405162461bcd60e51b8152602060048201526005602482015264047533030360dc1b6044820152606490fd5b600160008190526020526000805160206138cd833981519152549091906001600160a01b0390811661327557600160008190526020526132236000805160206138cd8339815191525b80546001600160a01b0319166001179055565b821661322d575050565b813b156132485761037891613243915a916130b8565b613193565b60405162461bcd60e51b815260206004820152600560248201526423a998181960d91b6044820152606490fd5b60405162461bcd60e51b8152602060048201526005602482015264047533130360dc1b6044820152606490fd5b156132a957565b60405162461bcd60e51b8152602060048201526005602482015264475331303160d81b6044820152606490fd5b156132dd57565b60405162461bcd60e51b815260206004820152600560248201526423a998981960d91b6044820152606490fd5b9291906001331415806133ae575b156133815761332693613076565b90811561335757337f6895c13664aa4f67288b25d7a21d7aaa34916e355fb9b6fae0a139a9085becb86000604051a2565b337facd2c8702804128fdb0db2bb49f6d127dd0181c13fd45dbfe16de0930e2bd3756000604051a2565b60405162461bcd60e51b815260206004820152600560248201526411d4cc4c0d60da1b6044820152606490fd5b50336000908152600160205260409020546001600160a01b03161515613318565b6001600160a01b0390811660018114159190826133eb57505090565b909150600052600160205260406000205416151590565b1561340957565b60405162461bcd60e51b8152602060048201526005602482015264475331303560d81b6044820152606490fd5b1561343d57565b60405162461bcd60e51b815260206004820152600560248201526423a998981b60d91b6044820152606490fd5b1561347157565b60405162461bcd60e51b8152602060048201526005602482015264047533230360dc1b6044820152606490fd5b156134a557565b60405162461bcd60e51b8152602060048201526005602482015264475332303160d81b6044820152606490fd5b156134d957565b60405162461bcd60e51b815260206004820152600560248201526423a999181960d91b6044820152606490fd5b1561350d57565b60405162461bcd60e51b8152602060048201526005602482015264475332303360d81b6044820152606490fd5b1561354157565b60405162461bcd60e51b815260206004820152600560248201526411d4cc8c0d60da1b6044820152606490fd5b61357a6004541561346a565b613587815183111561349e565b6001613595818410156134d2565b600081805b6135c0575b505061037892916135b56132106135bb93610d1e565b51600355565b600455565b9091835183101561364c57613623610468612dc184936135e36113b8888a611bd9565b9283916136116001600160a01b038085168015159182613641575b82613636575b82613629575b5050613506565b61192b61042361041761040a86610d1e565b9161359a565b841614159050388061360a565b308214159250613604565b818b141592506135fe565b9161359f565b1561365957565b60405162461bcd60e51b8152602060048201526005602482015264475332303560d81b6044820152606490fd5b80156125d6576000190190565b60207f610f7ff2b304ae8903c3de74c60c6ab1f7d6226b3f52c5161905bb5ad4039c93916136bf613779565b6136cd60035482111561349e565b6136da60018210156134d2565b80600455604051908152a1565b6040513481527f3d0ce9bfc3ed7d6862dbb28b2dea94561fe714a1b4d019aa8af39730d1ad7c3d60203392a2565b60009182602094604051908682019363a9059cbb60e01b855260018060a01b0316602483015260448201526044815261374d8161054e565b519261270f195a01f13d80156137755760201461376a5750600090565b600051159015171590565b5090565b30330361378257565b60405162461bcd60e51b8152602060048201526005602482015264475330333160d81b6044820152606490fd5b80156137e95780600019046041116001166137dc575b60416137d4818302928361254e565b036100235790565b6137e4612049565b6137c5565b50600090565b80156137e9578060001904600111600116613811575b60016137d4828061254e565b613819612049565b613805565b90811561384e5781600019048111600116613841575b6137d4818302928361254e565b613849612049565b613834565b5050600090565b80821161002357818110613867570390565b61386f612049565b0390565b602019811161388b575b602081019081106100235790565b613893612049565b61387d565b90801982116138ae575b81019081106100235790565b6138b6612049565b6138a2565b908082106138c7575090565b90509056fecc69885fda6bcc1a4ace058b4a62bf5e179ea78fd58a1ccd71c22cc9b688792f6c9a6c4a39284e37ed1cf53d337577d14212a4870fb976a4366c693b939918d5a26469706673582212200e5bd0730de6484214f762e9762d1a6d92e8e9742743021cc50d593c3d2c953a64736f6c634300080f0033",
    "linkReferences": {},
    "deployedLinkReferences": {}
}